{
  "contractName": "Todo",
  "abi": [
    {
      "inputs": [],
      "stateMutability": "nonpayable",
      "type": "constructor"
    },
    {
      "inputs": [
        {
          "internalType": "uint256",
          "name": "",
          "type": "uint256"
        }
      ],
      "name": "tasks",
      "outputs": [
        {
          "internalType": "uint256",
          "name": "id",
          "type": "uint256"
        },
        {
          "internalType": "string",
          "name": "title",
          "type": "string"
        },
        {
          "internalType": "bool",
          "name": "completed",
          "type": "bool"
        }
      ],
      "stateMutability": "view",
      "type": "function",
      "constant": true
    },
    {
      "inputs": [
        {
          "internalType": "string",
          "name": "_name",
          "type": "string"
        }
      ],
      "name": "addtask",
      "outputs": [],
      "stateMutability": "nonpayable",
      "type": "function"
    },
    {
      "inputs": [],
      "name": "getaskno",
      "outputs": [
        {
          "internalType": "uint256",
          "name": "",
          "type": "uint256"
        }
      ],
      "stateMutability": "view",
      "type": "function",
      "constant": true
    },
    {
      "inputs": [
        {
          "internalType": "uint256",
          "name": "id",
          "type": "uint256"
        }
      ],
      "name": "gettask",
      "outputs": [
        {
          "internalType": "string",
          "name": "",
          "type": "string"
        },
        {
          "internalType": "uint256",
          "name": "",
          "type": "uint256"
        },
        {
          "internalType": "bool",
          "name": "",
          "type": "bool"
        }
      ],
      "stateMutability": "view",
      "type": "function",
      "constant": true
    },
    {
      "inputs": [
        {
          "internalType": "uint256",
          "name": "id",
          "type": "uint256"
        }
      ],
      "name": "markcompletedtask",
      "outputs": [],
      "stateMutability": "nonpayable",
      "type": "function"
    }
  ],
  "bytecode": "0x608060405234801561001057600080fd5b50336000806101000a81548173ffffffffffffffffffffffffffffffffffffffff021916908373ffffffffffffffffffffffffffffffffffffffff1602179055506000600181905550610871806100686000396000f3fe608060405234801561001057600080fd5b50600436106100575760003560e01c80638d9776721461005c5780639f1046d61461008e578063ce731c5b146100c0578063d216f7e5146100de578063ffb2ce95146100fa575b600080fd5b610076600480360381019061007191906104f9565b610116565b604051610085939291906105d2565b60405180910390f35b6100a860048036038101906100a391906104f9565b6101d5565b6040516100b793929190610579565b60405180910390f35b6100c86102c4565b6040516100d591906105b7565b60405180910390f35b6100f860048036038101906100f391906104f9565b6102ce565b005b610114600480360381019061010f91906104b8565b610300565b005b600260205280600052604060002060009150905080600001549080600101805461013f906106da565b80601f016020809104026020016040519081016040528092919081815260200182805461016b906106da565b80156101b85780601f1061018d576101008083540402835291602001916101b8565b820191906000526020600020905b81548152906001019060200180831161019b57829003601f168201915b5050505050908060020160009054906101000a900460ff16905083565b60606000806002600085815260200190815260200160002060010160026000868152602001908152602001600020600001546002600087815260200190815260200160002060020160009054906101000a900460ff16828054610237906106da565b80601f0160208091040260200160405190810160405280929190818152602001828054610263906106da565b80156102b05780601f10610285576101008083540402835291602001916102b0565b820191906000526020600020905b81548152906001019060200180831161029357829003601f168201915b505050505092509250925092509193909250565b6000600154905090565b60016002600083815260200190815260200160002060020160006101000a81548160ff02191690831515021790555050565b600160008154809291906103139061073d565b9190505550806002600060015481526020019081526020016000206001019080519060200190610344929190610398565b5060015460026000600154815260200190815260200160002060000181905550600060026000600154815260200190815260200160002060020160006101000a81548160ff02191690831515021790555050565b8280546103a4906106da565b90600052602060002090601f0160209004810192826103c6576000855561040d565b82601f106103df57805160ff191683800117855561040d565b8280016001018555821561040d579182015b8281111561040c5782518255916020019190600101906103f1565b5b50905061041a919061041e565b5090565b5b8082111561043757600081600090555060010161041f565b5090565b600061044e61044984610635565b610610565b90508281526020810184848401111561046657600080fd5b610471848285610698565b509392505050565b600082601f83011261048a57600080fd5b813561049a84826020860161043b565b91505092915050565b6000813590506104b281610824565b92915050565b6000602082840312156104ca57600080fd5b600082013567ffffffffffffffff8111156104e457600080fd5b6104f084828501610479565b91505092915050565b60006020828403121561050b57600080fd5b6000610519848285016104a3565b91505092915050565b61052b81610682565b82525050565b600061053c82610666565b6105468185610671565b93506105568185602086016106a7565b61055f81610813565b840191505092915050565b6105738161068e565b82525050565b600060608201905081810360008301526105938186610531565b90506105a2602083018561056a565b6105af6040830184610522565b949350505050565b60006020820190506105cc600083018461056a565b92915050565b60006060820190506105e7600083018661056a565b81810360208301526105f98185610531565b90506106086040830184610522565b949350505050565b600061061a61062b565b9050610626828261070c565b919050565b6000604051905090565b600067ffffffffffffffff8211156106505761064f6107e4565b5b61065982610813565b9050602081019050919050565b600081519050919050565b600082825260208201905092915050565b60008115159050919050565b6000819050919050565b82818337600083830152505050565b60005b838110156106c55780820151818401526020810190506106aa565b838111156106d4576000848401525b50505050565b600060028204905060018216806106f257607f821691505b60208210811415610706576107056107b5565b5b50919050565b61071582610813565b810181811067ffffffffffffffff82111715610734576107336107e4565b5b80604052505050565b60006107488261068e565b91507fffffffffffffffffffffffffffffffffffffffffffffffffffffffffffffffff82141561077b5761077a610786565b5b600182019050919050565b7f4e487b7100000000000000000000000000000000000000000000000000000000600052601160045260246000fd5b7f4e487b7100000000000000000000000000000000000000000000000000000000600052602260045260246000fd5b7f4e487b7100000000000000000000000000000000000000000000000000000000600052604160045260246000fd5b6000601f19601f8301169050919050565b61082d8161068e565b811461083857600080fd5b5056fea2646970667358221220e0feca95d258488278e487ca206626a8275667bc61c1135c39643d2b41d219a464736f6c63430008040033",
  "immutableReferences": {},
  "source": "//SPDX-License-Identifier:MIT\npragma solidity ^0.8.4;\ncontract Todo{\n    address owner;\n    struct task{\n        uint id;\n        string title;\n        // string details;\n        bool completed;\n        \n    }\n    uint taskcount;\n    mapping(uint =>task) public tasks;\n    constructor() {\n        owner = msg.sender;\n        taskcount =0;\n        \n    }\n    modifier onlyowner{\n        require(msg.sender == owner,\"Only owner can call this function\");\n        _;\n    }\n    function addtask(string memory _name) public {\n        taskcount ++;\n        tasks[taskcount].title =_name;\n        tasks[taskcount].id = taskcount;\n        // tasks[taskcount].details =_details;\n        tasks[taskcount].completed = false;\n    }\n     function getaskno() public   view returns(uint256 )   {\n        return taskcount;}\n\n    function gettask(uint id) public view returns(string memory , uint256, bool){\n        return (tasks[id].title, tasks[id].id,tasks[id].completed);\n        \n    }\n    function markcompletedtask(uint id) public  {\n        tasks[id].completed = true;\n        \n    }\n}",
  "sourcePath": "/home/anu/Blockchain/Assignments/Todo_dapp/contracts/Todo.sol",
  "compiler": {
    "name": "solc",
    "version": "0.8.4+commit.c7e474f2.Emscripten.clang"
  },
  "schemaVersion": "3.4.0",
  "updatedAt": "2021-06-03T03:09:03.456Z",
  "networkType": "ethereum",
  "devdoc": {
    "kind": "dev",
    "methods": {},
    "version": 1
  },
  "userdoc": {
    "kind": "user",
    "methods": {},
    "version": 1
  }
}