{
  "contractName": "Todo",
  "abi": [
    {
      "inputs": [],
      "stateMutability": "nonpayable",
      "type": "constructor"
    },
    {
      "anonymous": false,
      "inputs": [
        {
          "indexed": false,
          "internalType": "string",
          "name": "title",
          "type": "string"
        },
        {
          "indexed": false,
          "internalType": "uint256",
          "name": "id",
          "type": "uint256"
        }
      ],
      "name": "gettaskdetail",
      "type": "event"
    },
    {
      "anonymous": false,
      "inputs": [
        {
          "indexed": false,
          "internalType": "string",
          "name": "title",
          "type": "string"
        },
        {
          "indexed": false,
          "internalType": "uint256",
          "name": "id",
          "type": "uint256"
        }
      ],
      "name": "taskadded",
      "type": "event"
    },
    {
      "anonymous": false,
      "inputs": [
        {
          "indexed": false,
          "internalType": "uint256",
          "name": "id",
          "type": "uint256"
        },
        {
          "indexed": false,
          "internalType": "bool",
          "name": "completed",
          "type": "bool"
        }
      ],
      "name": "taskcompleted",
      "type": "event"
    },
    {
      "inputs": [
        {
          "internalType": "uint256",
          "name": "",
          "type": "uint256"
        }
      ],
      "name": "tasks",
      "outputs": [
        {
          "internalType": "uint256",
          "name": "id",
          "type": "uint256"
        },
        {
          "internalType": "string",
          "name": "title",
          "type": "string"
        },
        {
          "internalType": "bool",
          "name": "completed",
          "type": "bool"
        }
      ],
      "stateMutability": "view",
      "type": "function",
      "constant": true
    },
    {
      "inputs": [
        {
          "internalType": "string",
          "name": "_name",
          "type": "string"
        }
      ],
      "name": "addtask",
      "outputs": [],
      "stateMutability": "nonpayable",
      "type": "function"
    },
    {
      "inputs": [],
      "name": "getaskno",
      "outputs": [
        {
          "internalType": "uint256",
          "name": "",
          "type": "uint256"
        }
      ],
      "stateMutability": "view",
      "type": "function",
      "constant": true
    },
    {
      "inputs": [
        {
          "internalType": "uint256",
          "name": "Id",
          "type": "uint256"
        }
      ],
      "name": "gettask",
      "outputs": [
        {
          "internalType": "string",
          "name": "title",
          "type": "string"
        },
        {
          "internalType": "uint256",
          "name": "id",
          "type": "uint256"
        },
        {
          "internalType": "bool",
          "name": "completed",
          "type": "bool"
        }
      ],
      "stateMutability": "view",
      "type": "function",
      "constant": true
    },
    {
      "inputs": [
        {
          "internalType": "uint256",
          "name": "id",
          "type": "uint256"
        }
      ],
      "name": "markcompletedtask",
      "outputs": [],
      "stateMutability": "nonpayable",
      "type": "function"
    }
  ],
  "bytecode": "0x608060405234801561001057600080fd5b50336000806101000a81548173ffffffffffffffffffffffffffffffffffffffff021916908373ffffffffffffffffffffffffffffffffffffffff1602179055506000600181905550610961806100686000396000f3fe608060405234801561001057600080fd5b50600436106100575760003560e01c80638d9776721461005c5780639f1046d61461008e578063ce731c5b146100c0578063d216f7e5146100de578063ffb2ce95146100fa575b600080fd5b61007660048036038101906100719190610590565b610116565b604051610085939291906106c2565b60405180910390f35b6100a860048036038101906100a39190610590565b6101d5565b6040516100b793929190610640565b60405180910390f35b6100c86102c4565b6040516100d5919061067e565b60405180910390f35b6100f860048036038101906100f39190610590565b6102ce565b005b610114600480360381019061010f919061054f565b61035c565b005b600260205280600052604060002060009150905080600001549080600101805461013f906107ca565b80601f016020809104026020016040519081016040528092919081815260200182805461016b906107ca565b80156101b85780601f1061018d576101008083540402835291602001916101b8565b820191906000526020600020905b81548152906001019060200180831161019b57829003601f168201915b5050505050908060020160009054906101000a900460ff16905083565b60606000806002600085815260200190815260200160002060010160026000868152602001908152602001600020600001546002600087815260200190815260200160002060020160009054906101000a900460ff16828054610237906107ca565b80601f0160208091040260200160405190810160405280929190818152602001828054610263906107ca565b80156102b05780601f10610285576101008083540402835291602001916102b0565b820191906000526020600020905b81548152906001019060200180831161029357829003601f168201915b505050505092509250925092509193909250565b6000600154905090565b60016002600083815260200190815260200160002060020160006101000a81548160ff0219169083151502179055507f8dafb80a30390fd5b7e7128ecc45392846f51a8b674299036603f06a2fac5437816002600084815260200190815260200160002060020160009054906101000a900460ff16604051610351929190610699565b60405180910390a150565b6001600081548092919061036f9061082d565b91905055508060026000600154815260200190815260200160002060010190805190602001906103a092919061042f565b5060015460026000600154815260200190815260200160002060000181905550600060026000600154815260200190815260200160002060020160006101000a81548160ff0219169083151502179055507f2141f9ad9bfd55eba5c6cb43bd00ccc8b5174d767a7dac025aab765a672cb74881600154604051610424929190610610565b60405180910390a150565b82805461043b906107ca565b90600052602060002090601f01602090048101928261045d57600085556104a4565b82601f1061047657805160ff19168380011785556104a4565b828001600101855582156104a4579182015b828111156104a3578251825591602001919060010190610488565b5b5090506104b191906104b5565b5090565b5b808211156104ce5760008160009055506001016104b6565b5090565b60006104e56104e084610725565b610700565b9050828152602081018484840111156104fd57600080fd5b610508848285610788565b509392505050565b600082601f83011261052157600080fd5b81356105318482602086016104d2565b91505092915050565b60008135905061054981610914565b92915050565b60006020828403121561056157600080fd5b600082013567ffffffffffffffff81111561057b57600080fd5b61058784828501610510565b91505092915050565b6000602082840312156105a257600080fd5b60006105b08482850161053a565b91505092915050565b6105c281610772565b82525050565b60006105d382610756565b6105dd8185610761565b93506105ed818560208601610797565b6105f681610903565b840191505092915050565b61060a8161077e565b82525050565b6000604082019050818103600083015261062a81856105c8565b90506106396020830184610601565b9392505050565b6000606082019050818103600083015261065a81866105c8565b90506106696020830185610601565b61067660408301846105b9565b949350505050565b60006020820190506106936000830184610601565b92915050565b60006040820190506106ae6000830185610601565b6106bb60208301846105b9565b9392505050565b60006060820190506106d76000830186610601565b81810360208301526106e981856105c8565b90506106f860408301846105b9565b949350505050565b600061070a61071b565b905061071682826107fc565b919050565b6000604051905090565b600067ffffffffffffffff8211156107405761073f6108d4565b5b61074982610903565b9050602081019050919050565b600081519050919050565b600082825260208201905092915050565b60008115159050919050565b6000819050919050565b82818337600083830152505050565b60005b838110156107b557808201518184015260208101905061079a565b838111156107c4576000848401525b50505050565b600060028204905060018216806107e257607f821691505b602082108114156107f6576107f56108a5565b5b50919050565b61080582610903565b810181811067ffffffffffffffff82111715610824576108236108d4565b5b80604052505050565b60006108388261077e565b91507fffffffffffffffffffffffffffffffffffffffffffffffffffffffffffffffff82141561086b5761086a610876565b5b600182019050919050565b7f4e487b7100000000000000000000000000000000000000000000000000000000600052601160045260246000fd5b7f4e487b7100000000000000000000000000000000000000000000000000000000600052602260045260246000fd5b7f4e487b7100000000000000000000000000000000000000000000000000000000600052604160045260246000fd5b6000601f19601f8301169050919050565b61091d8161077e565b811461092857600080fd5b5056fea26469706673582212209548bd0b6b210af46ac83d501bbd4ca12b0dd793fed2d72fb3275aee0723203c64736f6c63430008040033",
  "immutableReferences": {},
  "source": "//SPDX-License-Identifier:MIT\npragma solidity ^0.8.4;\ncontract Todo{\n    address owner;\n    struct task{\n        uint id;\n        string title;\n        // string details;\n        bool completed;\n        \n    }\n    uint taskcount;\n    mapping(uint =>task) public tasks;\n    constructor() {\n        owner = msg.sender;\n        taskcount =0;\n        \n    } \n    event taskadded(string title,uint id);\n    event gettaskdetail(string title,uint id);\n    event taskcompleted(uint id, bool completed);\n    modifier onlyowner{\n        require(msg.sender == owner,\"Only owner can call this function\");\n        _;\n    }\n    function addtask(string memory _name) public {\n        taskcount ++;\n        tasks[taskcount].title =_name;\n        tasks[taskcount].id = taskcount;\n        // tasks[taskcount].details =_details;\n        tasks[taskcount].completed = false;\n        emit taskadded(_name,taskcount);\n    }\n     function getaskno() public   view returns(uint256 )   {\n        return taskcount;}\n\n    function gettask(uint Id) public  view returns(string memory title, uint256 id , bool completed){\n        return (tasks[Id].title, tasks[Id].id,tasks[Id].completed);\n        // emit gettaskdetail(tasks[id].title, id);\n        \n    }\n    function markcompletedtask(uint id) public  {\n        tasks[id].completed = true;\n        emit taskcompleted(id, tasks[id].completed);\n        \n    }\n}",
  "sourcePath": "/home/anu/Blockchain/Assignments/Todo_dapp/contracts/Todo.sol",
  "compiler": {
    "name": "solc",
    "version": "0.8.4+commit.c7e474f2.Emscripten.clang"
  },
  "schemaVersion": "3.4.0",
  "updatedAt": "2021-06-10T04:15:21.162Z",
  "networkType": "ethereum",
  "devdoc": {
    "kind": "dev",
    "methods": {},
    "version": 1
  },
  "userdoc": {
    "kind": "user",
    "methods": {},
    "version": 1
  }
}